:020000040800F2
:10000000E88D002055020008553C00089134000896
:10001000513C0008790D000861470008000000000D
:10002000000000000000000000000000713F000818
:100030006510000800000000313D00089D3F0008E9
:100040006F0200086F0200086F0200086F020008CC
:100050006F0200086F0200086F0200086F020008BC
:100060006F0200086F0200086F0200086F020008AC
:100070006F020008250E00086F020008310E00080C
:100080006F0200086F0200086F0200086F0200088C
:100090007D0D00086F0200086F0200086F02000863
:1000A0006F0200086F0200086F0200086F0200086C
:1000B000894000086F0200086F0200086F02000804
:1000C0006F0200086F0200086F0200086F0200084C
:1000D0006F0200086F0200086F0200086F0200083C
:1000E0006F0200086F0200086F0200086F0200082C
:1000F0006F0200086F0200086F0200086F0200081C
:100100006F0200086F0200086F0200086F0200080B
:100110006F0200086F0200086F0200086F020008FB
:100120006F0200083D0E0008490E00086F0200082B
:100130006F0200086F0200086F0200086F020008DB
:100140006F0200086F0200086F0200086F020008CB
:100150006F0200086F0200086F020008C545000822
:100160006F0200086F0200086F0200086F020008AB
:100170006F0200086F0200086F0200080000000014
:100180006F0200086F02000800F002F800F052F859
:1001900014A696E8000CB244B344DA4501D100F04D
:1001A00049F8BAE80F000FA696E83000A5EB040561
:1001B00004EB0607AAEB0704A7F101074FEA1515A0
:1001C0004FEA3414A4F10104AC4201D300F032F838
:1001D00013F0010F18BFFB1A43F0010300F001F800
:1001E000DBE718471063000030630000103A24BFBB
:1001F00078C878C1FAD8520724BF30C830C144BF8C
:1002000004680C6070470000704700000023002461
:1002100000250026103A28BF78C1FBD8520728BF16
:1002200030C148BF0B6070471FB506F017F91FBDFE
:1002300010B510BD00F0E4F81146FFF7F5FF04F02B
:1002400007FE00F002F903B4FFF7F2FF03BC00F071
:1002500005F900000948804709480047FEE7FEE726
:10026000FEE7FEE7FEE7FEE7FEE7FEE7FEE7FEE766
:1002700004480549054A064B7047000075400008D0
:1002800089010008E8870020E88D0020E889002027
:10029000E889002053EA020C00F069802DE9F04B58
:1002A0004FF00006002B1FBFB3FA83F503FA05F4E5
:1002B00024FA05F65E4012BF1643B2FA82F502FA3E
:1002C00005F4C5F120051EBF22FA05FC44EA0C0422
:1002D000203556EA044C4FEA144418BF641C4FF012
:1002E00000084FF00009904271EB030C39D300294C
:1002F00019BFB1FA81F701FA07F6B0FA80F700FAF0
:1003000007F6C7F120071EBF20FA07FC46EA0C06D5
:100310002037B6FBF4FCA7EB0507103F07F01F0BD7
:10032000CBF120062CFA06F60CFA0BFB44BFB346C1
:100330000026202FA4BF5E464FF0000B5BEA060CA0
:1003400008BF4FF0010B19EB0B0948EB0608ABFB9C
:10035000027C06FB02CC0BFB03CCC01B71EB0C0137
:10036000C1E70B46024641464846BDE8F08B13B54F
:10037000084318BF4FF0FF300146AFF30080BDE8DF
:100380001C4070474FF0000200B513469446964655
:10039000203922BFA0E80C50A0E80C50B1F1200198
:1003A000BFF4F7AF090728BFA0E80C5048BF0CC046
:1003B0005DF804EB890028BF40F8042B08BF7047A4
:1003C00048BF20F8022B11F0804F18BF00F8012B16
:1003D000704770477047704710B500F009F8006823
:1003E00010BD10B5044600F003F8046010BD000015
:1003F000004870472800002000487047280000206F
:100400007546FFF7F9FFAE4605006946534620F0F2
:100410000700854618B020B5FFF72AFFBDE8204049
:100420004FF000064FF000074FF000084FF0000BB0
:10043000AC46ACE8C009ACE8C009ACE8C009ACE81F
:10044000C00921F007018D46704710B50446AFF38F
:1004500000802046BDE81040FFF7F5BE0149182096
:10046000ABBEFEE7260002007047000040F60040E9
:10047000C4F202004FF40071012201F039BD000006
:1004800040F60040C4F202004FF40071002201F077
:100490002FBD000040F60040C4F202004FF400619E
:1004A000012201F025BD000040F60040C4F2020028
:1004B0004FF40061002201F01BBD000070B504463E
:1004C000FFF7DEFF922000F03DFC922000F03AFCA6
:1004D000552000F037FC40F21825C2F20005E87004
:1004E000552000F02FFC2871552000F02BFC68717E
:1004F000552000F027FCA871552000F023FCE8717E
:10050000552000F01FFC2872FFF7B0FF40F20806EC
:10051000B5F90300C2F20006317800EE100A96ED3C
:10052000012AB8EEC01A94ED080A22EE011AC9B1E8
:1005300094ED0C2A21EE001A31EE421A84ED001AD5
:10054000B5F9050096ED011A03EE100AB8EEC33AAC
:1005500094ED0D2A21EE033A23EE003A33EE422ABF
:1005600010E000BF20EE011A84ED001AB5F9050075
:1005700096ED011A02EE100AB8EEC22A21EE022A06
:1005800020EE022A84ED012AB5F9070002EE100AD6
:10059000B8EEC22A21EE021A20EE010A84ED020A08
:1005A000FFF782FF802000F0CDFB552000F0CAFB52
:1005B000E870552000F0C6FB2871552000F0C2FB02
:1005C0006871552000F0BEFBA871552000F0BAFB01
:1005D000E871552000F0B6FB2872552000F0B2FB00
:1005E0006872552000F0AEFBA872FFF753FFE87861
:1005F0000F2845D1B5F90500317801EE100A96EDC6
:10060000020AB8EEC11A19B394ED092AB5F9070028
:1006100021EE001AB5F9091031EE421A02EE100A65
:1006200094ED0A3AB8EEC22A84ED031A01EE101ACC
:1006300094ED0B4A22EE002AB8EEC11A32EE432A9C
:1006400021EE000A84ED042A30EE440A16E000BFD1
:10065000B5F90700B5F9091020EE011A02EE100AEB
:1006600084ED031A01EE101AB8EEC22AB8EEC11AD0
:1006700020EE022A20EE010A84ED042A84ED050A08
:10068000FFF7FEFEA22000F05DFBA22000F05AFB67
:10069000552000F057FBE870552000F053FB2871FF
:1006A000FFF7E4FEE8782979C00040EA51114FF6DF
:1006B00000020023CFF6FF72B3EB902F18BF114357
:1006C00000EE101AB8EEC00AB4EE001A20EE010ACD
:1006D000B3EE071A30EE010A84ED070A70BD000080
:1006E0002DE9F04F81B02DED108B0C4640F27C21AE
:1006F00040F2182AC2F20001C2F2000A0025086086
:100700008AF8005004F02EF89AF8001008438AF88E
:10071000000004F0C5F89AF80010002C40EA01002F
:100720008AF8000000F0CA8000F000FC8AED050A9B
:1007300000F0FCFB9AED051AB2EE04AA30EE410A75
:10074000B4EE4A0AF1EE10FA40F3E8804AF2F00003
:10075000CBF632204FF2B9314EF6B1720AF14803AE
:10076000CBF6AF21CBF6BB2207C348F27A40C4F2E6
:100770001D10CAF8600000209FED6F0AC4F220200F
:10078000CAF83C009FED6D1A9FED6D9A81EE000A4C
:100790009FED6CAA9FED6C8A002641F26F7B8AED7B
:1007A000110A00BFFFF76CFE922000F0CBFA9220F6
:1007B00000F0C8FA552000F0C5FA0446552000F0B4
:1007C000C1FA0546552000F0BDFA8146552000F0DB
:1007D000B9FA0746552000F0B5FA8046552000F0DA
:1007E000B1FA8246FFF742FE44EA052000B200EE6D
:1007F000100A40F20800C2F2000090ED011A40F227
:100800001820C2F20000B8EEC00A90ED112A21EEC5
:10081000000A90ED153A22EE000A80ED090A20EE5A
:10082000090A23EE0A3A33EE000A90ED164A90EDDB
:10083000175A80ED150A49EA072000B200EE100AA7
:10084000B8EEC00A21EE000A40F2182022EE000A9B
:10085000C2F2000080ED0A0A20EE090A24EE0A3AEC
:1008600033EE000A80ED160A48EA0A2000B200EED4
:10087000100AB8EEC00A40F2182421EE000AC2F2B3
:10088000000422EE000A84ED0B0A20EE090A25EE90
:100890000A1A31EE000A84ED170AB0EE480A00F099
:1008A000D9FA5E4506F10106FFF47CAF2078C0B2AC
:1008B000BDEC108B01B0BDE8F08F00BF4AF2F00133
:1008C00041F60F04CBF632214FF2B932C3F67F74F2
:1008D000CBF6AF224EF6B17346F60B77CAE911415B
:1008E0000AF14C01CBF6BB23C3F6996749F62A06F9
:1008F00048F27A4C8CC10021C3F69356C4F21D1CF9
:10090000C4F22021CAE91665CAF860C0CAF83C10D2
:10091000C0B2BDEC108B01B0BDE8F08F9FED0BCAEB
:10092000DFED0B8A9FED089AB6EE00BA0024B4EE14
:1009300000DAB3EE07EA19E07A841D41C3F51C41E1
:10094000CDCC4C3ECDCC4C3F6F12033A0080BB4522
:100950009A99193E00F0EAFA9AED051A30EE410A2A
:10096000B4EE4A0AF1EE10FA3FF7F0AE9FEDF20A4C
:1009700000F070FA4FF0000BCAF86040CAE9124468
:10098000CAF85040FFF77CFD922000F0DBF992207E
:1009900000F0D8F9552000F0D5F98046552000F038
:1009A000D1F90546552000F0CDF98146552000F0DB
:1009B000C9F90746552000F0C5F90446552000F056
:1009C000C1F90646FFF752FD48EA052000B200EEE5
:1009D000100A40F20800C2F2000090ED011A49EA44
:1009E000072000B202EE100A44EA062000B2B8EE78
:1009F000C00AB8EEC22A03EE100A21EE000A21EE68
:100A0000022AB8EEC33A21EE031A22EE023A20EE91
:100A1000004A34EE033A21EE014A34EE033AF1EE95
:100A2000C39A8AED090A9AED180A8AED0A2A8AED14
:100A30000B1A30EE290A8AED180AFFF735FD8020DF
:100A400000F080F9552000F07DF90446552000F0B3
:100A500079F9552000F076F98146552000F072F9B9
:100A60000646552000F06EF98046552000F06AF9E0
:100A70000546552000F066F98246552000F062F9DF
:100A80000746FFF707FD0F2C3CD149EA062000B2CC
:100A900000EE100A40F20800C2F2000040F21821F5
:100AA00090ED021AC2F20001B8EEC00A91ED122ACE
:100AB00021EE000A48EA052081ED0C0A30EE020A18
:100AC00000B281ED120A00EE100A91ED133AB8EE71
:100AD000C00A21EE000A4AEA072081ED0D0A30EE35
:100AE000030A00B281ED130A00EE100A91ED144AD8
:100AF000B8EEC00A21EE000A81ED0E0A30EE040ABB
:100B000081ED140A40F2182AC2F2000ABBF1000F6C
:100B10003ED09AED0C0AB4EE6B0AF1EE10FAC8BFA3
:100B2000F0EE40BA9AED0D1AB4EE6F0AF1EE10FA3B
:100B3000B4EE6C1AB8BFF0EE40FAF1EE10FAC8BF8E
:100B4000F0EE41CA9AED0E0AB4EE6E1AF1EE10FA0A
:100B5000B4EE6A0AB8BFF0EE41EAF1EE10FAB4EE74
:100B60006D0AC8BFF0EE40AAF1EE10FAF4EE4F9A0B
:100B7000B8BFF0EE40DAF1EE10FAF4EE489AC8BFD2
:100B8000B0EE69FAF1EE10FAB8BFB0EE698A0FE084
:100B9000DAED0CBADAED0EAADAED0DCAF0EE6ADA89
:100BA000F0EE6CEAF0EE6BFAB0EE69FAB0EE698A3C
:100BB0003FEE480AB4EE4B0A8AED040A3BEEEF2AF8
:100BC0003CEEEE1AF1EE10FA3AEEED0A8AED062A44
:100BD0008AED071A8AED080A19DCB4EE682AF1EEEC
:100BE00010FA14DCB4EE681AF1EE10FA0FDCB4EE71
:100BF000680AF1EE10FA0ADCB0EE490A00F02AF9B0
:100C000041F26F7083450BF1010BFFF4BBAE9AED1F
:100C1000120A9AED131A9AED182A9AED143A82EEF6
:100C20000C2A80EE0C0A81EE0C1A83EE0C3A8AED47
:100C3000182A8AED120A8AED131A8AED143AFFF780
:100C40001FFCA22000F07EF8A22000F07BF85520C7
:100C500000F078F80446552000F074F80546FFF7D8
:100C600005FCE000002440EA5511B4EB902F4FF64C
:100C70000000CFF6FF7018BF014300EE101AB8EE67
:100C8000C00A20EE0D0A30EE0E0A8AED0F0A9AED28
:100C9000040ABAF80C00B4EE4B0A0130F1EE10FA77
:100CA000AAF80C003FF756AE9AED180A9FED231AEA
:100CB00030EE011AB0EEC11AB4EE4B1AF1EE10FA92
:100CC0003FF748AE9AED061AB4EE681AF1EE10FA44
:100CD0003FF740AE9AED071AB4EE681AF1EE10FA3B
:100CE0003FF738AE9AED081AB4EE681AF1EE10FA32
:100CF0003FF730AE9AED121A9FED112AB0EEC11AED
:100D0000B4EE421AF1EE10FA3FF724AE9AED131A40
:100D1000B0EEC11AB4EE421AF1EE10FA3FF71AAE75
:100D20009AED141AB0EEC11AB4EE421AF1EE10FAAE
:100D30003FF710AE26E500BF0AD7A33BCDCC1CC1C0
:100D40000AD7233C80B582B040F27C21C2F2000178
:100D50000B688DF807004FF47A7C0DF107010DF157
:100D6000060218460123CDF800C001F05BFD9DF896
:100D7000060002B080BD0000FEE7000040F24050D7
:100D8000C2F2000000F0E8BA10B58AB040F2405458
:100D900000200121C2F200040690CDE90400CDE953
:100DA0000200CDE90000CDE907110990694620460F
:100DB00000F0CAF9204600F055FD2046022100F05F
:100DC00057F90AB010BD0000B0B58AB04FF40074F6
:100DD00001940024CDE9034408240E9D05940C0AD7
:100DE0008DF81D10110A0DF1040C8DF81E10190A52
:100DF0000CF1180E8DF82010290A8DF81F208DF89F
:100E000021308DF8221009AB614672468DF81C40E6
:100E10008DF8235000F044F9002818BF01200AB0D3
:100E2000B0BD000040F2B450C2F2000000F090BD2E
:100E300040F21460C2F2000000F08ABD40F2D460BB
:100E4000C2F2000000F084BD40F27460C2F2000003
:100E500000F07EBD41F2040040F2D802CEF2000064
:100E6000C2F20002016892ED001AB8EE411A21EEBA
:100E7000000A16E00268521A01EE102AB8EE411A72
:100E8000B4EE410AF1EE10FAD8BF70470268521A68
:100E900001EE102AB8EE411AB4EE410AF1EE10FA52
:100EA00015DD0268521A01EE102AB8EE411AB4EEAE
:100EB000410AF1EE10FA0ADD0268521A01EE102A18
:100EC000B8EE411AB4EE410AF1EE10FAD2DC7047E6
:100ED00010B582B041F2040ECEF2000EDEF8001022
:100EE000009140F2D801C2F20001DDF800C00268B2
:100EF0000B68009C0460DEF80000019001980C690A
:100F0000A04202D2C8680130C860ACEB020000EE1B
:100F1000100A01EE103A0198B8EE400AB8EE411AF4
:100F200080EE010A086102B010BD00002DE9F04713
:100F300082B041F20400CEF20000016840F2D80A0B
:100F400000910068C2F2000A01900199DAE90302F7
:100F5000002791423CBF0130CAF80C0001990023E0
:100F6000CAF81010009E4FF0FF31E0FB0167DAE98C
:100F70000049DAF80880304639462246CAE9066751
:100F8000FFF788F90546A0FB040201FB0421341A8F
:100F900067EB0106204631464A460023CAF8205036
:100FA000FFF778F987B2AAF8240007FB09F0201AA6
:100FB00066F1000142460023FFF76CF901EE107A5A
:100FC0009FED0D2A00EE105AB8EE411A81B2B8EE2C
:100FD000400A21EE021A31EE000A01EE101A9FEDCE
:100FE000072AB8EE411A21EE021A31EE000AAAF8D9
:100FF000260002B0BDE8F0876F12833ABD37863510
:1010000010B54EF6FC5CCEF2000CDCF8002044F289
:101010004023C0F20F0342F08072584344F6D3538A
:10102000CCF8002041F20002C1F26203CEF20002CD
:101030004FF0000CA0FB033EC2F804C04DF68361E4
:101040001368C4F21B31A0FB011443F001011160CD
:1010500040F2D801C2F200014FEA9E12A30C81E8CF
:101060000D1010BD7047000072B600BFFEE7000013
:1010700090F82020013A012A08D8006800F11402F3
:101080000020136819431160704700BF00F124026B
:1010900001204FF48021136819431160704700004C
:1010A00010B590F820E0D0F800C0AEF1010EBEF10E
:1010B000010FDCF808E011D81EF0E05F18D0CEF385
:1010C000016E012000FA0EF018608B68D3B14868F9
:1010D000CC6844EAC000034318E000BF00F12401DB
:1010E00001204FF480220B681A430A6010BD00BF34
:1010F00000F1240101204FF400120B681A430A602A
:1011000010BD00BF0868CB6843EA40530CEB0E10DB
:10111000C0F880310B69C0F88431097D012905D1FF
:1011200000F5C2710B6843F480730B605168C0F81E
:101130008C11126800F5C071C0F8882100200122CE
:101140000B681A430A6010BD90F82020013A012A6A
:1011500030D8B0B546F20060C4F20000026842F038
:1011600001020260026822F47C520260D1F814E0AD
:10117000CC694A6A0368012C43EA022202600EF03D
:101180001F024FF0010303FA02F2C3696FEA020C77
:1011900023EA0203C36113D02CBBC36803EA0C0328
:1011A000C360CB688C8844EA034300EBCE0423641D
:1011B0000B4611E0416A41F48021416201207047F1
:1011C000C3681343C3600B688C8844EA034300EB95
:1011D000CE04236401F10C038C681B8843EA0443AA
:1011E00000EBCE04636443688D6943EA0204D1F8DE
:1011F00010E0096A002D08BF03EA0C04446043694B
:10120000BEF1000F43EA020408BF03EA0C040129FF
:10121000446102D1C1691143C161016821F001013A
:1012200001600020B0BD00007047000010B590F8CC
:101230002040013C012C7BD8D0F800C000290CBF15
:10124000DCF80C40DCF81040A4077BD00CEB011C50
:10125000DCF8B0410CF5D87E14F004049460DCF89E
:10126000B04119BFE4085460640D1460DEF800401A
:101270000CF5DA7E04F00204D460DCF8B4412407F3
:101280005ABFDEF8004004F00F0408241461DEF8B1
:1012900000400029C4F307249461DEF800404FEABF
:1012A00014445461DCF8B8211A70026802EB011290
:1012B000D2F8B8214FEA12225A70026802EB0112EA
:1012C000D2F8B8214FEA12429A70026802EB01127A
:1012D000D2F8B8214FEA1262DA70026802EB01120A
:1012E000D2F8BC211A71026802EB0112D2F8BC21BB
:1012F0004FEA12225A71026802EB0112D2F8BC21A5
:101300004FEA12429A71026802EB0112D2F8BC2134
:101310004FEA1262DA7100680CBF00F10C0100F1B3
:101320001001002020220B681A430A6010BD00BF84
:1013300000F1240101204FF480220B681A430A6057
:1013400010BD00BF00F1240101204FF400120B6812
:101350001A430A6010BD00002DE9F04F81B0044629
:1013600000684669D0F804908768D0F80CB0D0F8CF
:1013700010A0D0F81880F10704D1002530071DD443
:1013800024E000BFF90710D00121BA07816009D419
:10139000780700F1AF80380700F1B680204600F0F2
:1013A0008FFA02E0204600F08DFA0025F80500F1E2
:1013B0008780F80300F1B180300707D51BF01000DB
:1013C00004D0206845F400751021C160700708D56D
:1013D0001BF0080005D020680821C160204600F0FD
:1013E000FDF9B00706D52068C068800702D0204606
:1013F00000F0F6F9700607D51AF0100004D0206846
:1014000045F4806510210161B00608D51AF0080086
:1014100005D0206808210161204600F01DFAF00681
:1014200006D520680069800702D0204600F016FA31
:10143000B00308D519F0100005D0206810214160D4
:10144000204600F00DFAF00308D519F0080005D089
:10145000206808214160204600F03EFA300440F147
:101460009B805FEA497040F1948006F4807008EA3E
:10147000102028435FEA8871014648BF41F002010D
:10148000B20558BF01465FEA48700D4648BF45F0B7
:101490000405700558BF0D46300540F17A8018F0FC
:1014A000700000F076801038000905286CD8DFE85D
:1014B00000F003595D61656945F0080564E000BF0F
:1014C00020684FF48071BA0581600BD4780515D47B
:1014D00038051DD4204600F0F7F9F8037FF56CAF0E
:1014E0001BE000BF204600F0F1F9F8037FF564AF80
:1014F00013E000BF4FF4006558E700BF05F5005545
:10150000F8037FF559AF08E04FF480554EE700BF70
:1015100005F58045F8037FF54FAF20684FF4803123
:10152000BA0381600AD4780310D4380314D4204657
:1015300000F0CEF930073FF541AF47E7204600F015
:10154000C9F930073FF53AAF40E700BF05F5004560
:1015500030073FF533AF39E705F5803530073FF504
:101560002DAF33E745F010050EE000BF45F0200534
:101570000AE000BF45F0400506E000BF45F08005E9
:1015800002E000BF45F480752068816921F0700198
:10159000816120680421416055B1606A40EA05011B
:1015A0002046616201B0BDE8F04FFFF73DBE00BFCD
:1015B00001B0BDE8F08F0000002804BF0120704793
:1015C000B0B5044690F8200010B9204600F06EF83F
:1015D0002068016841F00101016000F08FFC0546C0
:1015E00020684168C90705D100F088FC401B0B2822
:1015F000F6D310E0016821F00201016000F07EFCEA
:10160000054600BF2068416889070DD500F076FCCB
:10161000401B0B28F6D3606A052140F4003060625D
:10162000012084F82010B0BD217E0268012922F03B
:10163000800208BF80320260617E0268012922F0C8
:10164000400208BF40320260A17E0268012922F0F8
:10165000200208BF20320260E17E0268012922F0E8
:10166000100218BF10320260217F0268012922F0A7
:10167000080208BF08320260617F0268012922F077
:10168000040208BF04320260D4E901C2D4E9033580
:1016900061691A432A431143ACF101021143C1614C
:1016A00000200121606284F82010B0BD80B586B0B2
:1016B000006846F60002C4F2000200219042CDE923
:1016C0000411CDE90211019146D046F20041C4F265
:1016D0000001884240F07F8040F2A841C2F2000140
:1016E0000A6843F64000C4F20200531C0B6052B972
:1016F00000210091016841F000710160016801F072
:101700000071009100990021009150F8102C42F0D6
:10171000080240F8102C50F8100C022200F00800CB
:10172000009000980320019004900920059040F259
:101730000040C4F20200CDE9022100F5006001A9D9
:1017400000F0FEFA14200521002200F097FC14207E
:1017500000F082FC06B080BD43F64000C4F20200F7
:101760000091016841F080610160016801F08061D1
:101770000091009940F2A841C2F200010A68531C8E
:101780000B6052B900210091016841F000710160C5
:10179000016801F00071009100990021009150F85A
:1017A000102C42F0020240F8102C50F8100C00F0FF
:1017B000020000900098602001900220CDE9020113
:1017C000032004900920059040F20040C4F202007A
:1017D00001A900F0B5FA06B080BD00007047000016
:1017E00010B540F29054C2F2000404F11C03002131
:1017F0002246FFF71BFD2068A0F2052104290BD328
:10180000A0F20121032988BF10BD013840F6C01E97
:10181000C0B2C2F2000E05E0FB3040F6603EC0B23E
:10182000C2F2000EA28B4FF0680C12BA00FB0CF350
:10183000120C3EF803102EF80320E28B10FB0CE094
:10184000018111BA228C090C418011BA94F822202E
:10185000090C8180827110BD704700007047000044
:1018600070470000B0B5044690F8200001281DD153
:10187000022084F820002068016821F00101016045
:1018800000F03CFB054600BF20684068C00713D04D
:1018900000F034FB401B0B28F6D3606A40F40030A4
:1018A0006062052084F820000120B0BD606A40F429
:1018B000002060620120B0BD00206062B0BD000069
:1018C000704700007047000070470000704700003C
:1018D000704700007047000070470000B0B5D0F8B6
:1018E00008E0BEF1800F05D14FF480714165012001
:1018F000B0BD00BF90F834C0BCF1010F04BF02209E
:10190000B0BD4FF0010C80F834C090F835C0BCF188
:10191000010F4FF0020C18D180F835C00068049D0B
:10192000D0F800C0BEF1400F4CF480240460036185
:101930000B46456004BF13460A468360C2600168D7
:101940004FF0000C41F0010101606046B0BD0000A5
:10195000F0B581B004460020009040F21400C2F2BD
:1019600000000268D4E9166048F2B5133768082110
:10197000C1F64E3381403942A2FB03250CD02268C8
:1019800013685B0708D5136823F004031360B16084
:10199000616D41F00101616501218140394208D04A
:1019A00022685269120604D5B160616D41F00201EE
:1019B000616504218140394208D02268126892078B
:1019C00004D5B160616D41F0040161651021814071
:1019D000394217D020680268120713D5B160026837
:1019E0000168520308D4C90508D4016821F0080130
:1019F0000160216C21B905E008033FD4216C09B1D5
:101A000020468847E16D202000FA01F23A4241D099
:101A100020680368DB063DD5B26094F83530026873
:101A2000052B1BD122F016020260426922F08002CF
:101A30004261226C0AB9A26C1AB1026822F0080253
:101A400002603F208840B060012084F83500216D9D
:101A50000020002984F8340052D157E00168520375
:101A600010D4C90512D4016821F0100101600120D1
:101A700084F83500002084F8340007E0A16C0029C8
:101A8000BED1BFE7080301D4616C00E0E16B09B18E
:101A900020468847606DC8B3606DC0072ED0052012
:101AA00084F835002068A90A026822F00102026069
:101AB000009A01328A4200921AD80268D20717D0DF
:101AC000009A01328A42009212D80268D2070FD0DF
:101AD000009A01328A4200920AD80268D20707D0DF
:101AE000009A01328A42009202D80268D207DFD1FE
:101AF000012084F83500002084F83400E16C29B11D
:101B0000204601B0BDE8F040084700BF01B0F0BD7D
:101B10002DE9F041044600F0F1F9ECB10546022050
:101B200084F835000020216884F83400086820F02B
:101B30000100086021680868C00711D000F0DEF9D4
:101B4000401B0528F6D9032520230320636584F86C
:101B50003550BDE8F08100BF0120BDE8F08100BF35
:101B6000086848F23F02CFF21002D4E9013500EADA
:101B7000020C04F10C0898E8C10143EA0C032B4362
:101B80001843D4E9072E304338431043626A40EAD1
:101B90000E00042A40EA08031CD1206BD4E90A2E67
:101BA00040EA0E00184308604869BEF1000F20F0BB
:101BB000030040EA020040F0040C11D0B8F5005FC9
:101BC00036D0B8F1000F45D1022A46D0012A3BD0C9
:101BD00032B942E00B60486920F0070040EA020C8D
:101BE00001F0F8004AF6AB221038CAF6AA22A0FB90
:101BF00002231A0946F29843C1F814C0C0F6000344
:101C00009A5C40F2FF335F284FF03F0021EA030166
:101C100000FA02F088BF0431C4E91612886000237C
:101C200001250020636584F83550BDE8F08100BFD0
:101C3000032AD5D8012540230120DFE802F0030E56
:101C4000030500BF82E700BFAEF1C070B0FA80F0BC
:101C5000400904E0032A04D3C2D1CEF30060002877
:101C6000BED0012540230120636584F83550BDE8CE
:101C7000F081000090F834C0BCF1010F04BF0220D5
:101C8000704770B54FF0010C80F834C0D0F858E0C0
:101C900090F835C0BCF1010F38D14FF0020C80F83C
:101CA00035C04FF0000CC0F854C0D0F800C08468B4
:101CB000056CC06DDCF80060402C26F48026CCF862
:101CC0000060CCF804300B4604BF13460A463F219F
:101CD00001FA00F0CCF80830CCF80C20CEF808005F
:101CE000DCF8000040F01600CCF800002DB1DCF864
:101CF000000040F00800CCF80000DCF8000040F0E4
:101D00000100CCF80000002070BD00BF002180F869
:101D10003410022070BD0000B0B5044600F0EEF8AB
:101D2000054640F20000C2F200000078611C18BFB6
:101D3000044400BF00F0E2F8401BA042FAD3B0BD5B
:101D40002DE9F04F82B000F13E4707F1FF7786059D
:101D500046EA972741F60046C4F20206082243F6F7
:101D6000004EB04208BF0722C4F2010E072F38BF51
:101D70003A46002600274FF00008009209E000BF15
:101D800008F101080237B8F1100F06F1040600F05F
:101D9000A3800D68012202FA08F415EA0409EFD0C5
:101DA000D1F804B003220BF0030CACF10105BA40EA
:101DB000012D6FEA020A0FD88268CD6802EA0A0292
:101DC000BD402A4382604268A243CBF3001404FA68
:101DD00008F42243426005E0BCF1030F02D14FF04A
:101DE000030C1EE0C2688C6802EA0A02BC4022436F
:101DF000BCF1020FC26014D16FF0030202EA580274
:101E00000244D2F820C006F01C040F230D69A34041
:101E10002CEA0303A5402B431362D1F804B00BF066
:101E2000030C02680CFA07F302EA0A021A431BF4D5
:101E3000403F0260A4D0002243F644030192C4F262
:101E400002031A684FF6084C42F480421A601A687E
:101E5000CFF6FF7C02F480420192019A28F003023F
:101E6000724452F80C3006F00C050F24AC40A3432A
:101E7000009C04FA05F52B4342F80C30DEF80820EC
:101E80004B6842EA090543F60C4CDC0258BF22EAD3
:101E90000905CEF80850C4F2010CDCF800209C02C1
:101EA00042EA090558BF22EA0905CCF80050DEF8DD
:101EB00004209C0342EA090558BF22EA0905CEF82E
:101EC0000450DEF80020DB0342EA090558BF22EA8D
:101ED0000905CEF8005053E702B0BDE8F08F0000CE
:101EE000426902EA0103914341EA0341816170477B
:101EF000002A08BF090481617047000048F28C5035
:101F0000C2F200000068704740F2000048F28C51B5
:101F1000C2F20000C2F2000100780A6810440860B2
:101F20007047000080B543F60040C4F2020001682B
:101F300041F400710160016841F480610160016851
:101F400041F480710160032000F0C4F80F2000F01C
:101F500005F800F05FF8002080BD000070B586B085
:101F6000002543F640010195C4F202010A680446C7
:101F700042F001020A60096801A801F00101019123
:101F80000199694600F068F9049E002E18BF0126E9
:101F900000F082F94DF68361B040C4F21B31A0FB22
:101FA00001014FF0FF3000EB914140F28C70C2F222
:101FB00000004FF0804240F2E733C0E90021C0E961
:101FC00002530561856100F0D9FD054610B1284630
:101FD00006B070BD40F28C70C2F2000000F0FEFD51
:101FE00005460028F3D11C2000F036F80F2C0DD840
:101FF0001C2021460022002500F040F840F2040099
:10200000C2F200000460284606B070BD01252846D3
:1020100006B070BD82B0002043F640010190C4F2CA
:1020200002014A6842F480424A604A6802F48042EF
:102030000192019A00900868002240F080500860E8
:1020400008680F2100F08050009000986FF00100A8
:1020500002B000F013B80000002848BF704700F03D
:102060001F01012202FA01F11C2202EAD0004EF205
:102070000012CEF2000281507047000010B54EF6FB
:102080000C5CCEF2000CDCF80030C3F3022E8EF0B4
:102090000704042C28BF0424BEF103034FF0FF3EC5
:1020A0000EFA04F438BF0023A14399400EFA03F35B
:1020B0009A43114300F00F0200F160430901043A12
:1020C00003F564436244002848BF02F10C03197011
:1020D00010BD00004EF60C51CEF200010A684FF61A
:1020E000FF031A4060F30A2242F0806040F0FD7066
:1020F00008607047002804BF012070472DE9F041B7
:1021000043F60808C4F202080446D8F8F8030D465E
:1021100000F00700884207D288F8F853D8F8F8038F
:1021200000F00700A84277D12068810717D5410742
:1021300005D5D8F8001041F4E051C8F800100107A7
:1021400005D5D8F8001041F46041C8F80010D8F85F
:102150000010A26821F0F0011143C8F80010C00778
:1021600040D1D8F8F80300F00700A84207D988F852
:10217000F853D8F8F80300F00700A8424CD12068C3
:10218000410707D5D8F80010E26821F4E051114367
:10219000C8F80010000708D5D8F80000216920F41D
:1021A000604040EAC100C8F8000000F09DF8D8F88F
:1021B000001046F28042C1F30311C0F60002515CE8
:1021C00040F2140220FA01F140F20400C2F20000D1
:1021D0000068C2F200021160FFF7C0FE0020BDE8F7
:1021E000F08100BF6068811E022907D258F8081CE0
:1021F00089015CBF0120BDE8F08111E0012807D111
:1022000058F8081C89035CBF0120BDE8F08107E095
:1022100058F8081C890703D40120BDE8F08100BFED
:10222000D8F8001021F003010843C8F80000FFF7B8
:1022300065FE064641F28837D8F80000616800F074
:102240000C00B0EB810F8CD0FFF758FE801BB8421A
:10225000F2D90320BDE8F0810F22026043F60802A4
:10226000C4F20202136803F003034360136803F02F
:10227000F0038360136803F4E053C360D2F800C036
:102280004FF4E05303EADC030361D2F8F80300F0F3
:10229000070008607047000040F2140043F6080190
:1022A000C2F20000C4F202010068096846F29042DE
:1022B000C1F38221C0F60002515CC84070470000A3
:1022C00040F2140043F60801C2F20000C4F2020119
:1022D0000068096846F29042C1F34231C0F600023C
:1022E000515CC8407047000010B543F60404C4F2C6
:1022F0000204606800F00C0008280BD0042819BF05
:1023000042F20040C0F2F40041F60030C0F2B700E3
:1023100010BD00BF206821682368490241F60031E2
:10232000C0F2B70100F03F02C3F388105CBF42F275
:102330000041C0F2F401A1FB00010023FDF7AAFF58
:1023400021680222C1F3014102EB4101B0FBF1F02F
:1023500010BD0000002804BF012070472DE9F041A6
:1023600082B00446007843F60006C007C4F20206B5
:102370000CD0B06800F00C00042840F08180306878
:10238000800303D56068002800F06A812078800708
:102390001BD5B06810F00C0F09D0B06800F00C002D
:1023A000082840F087807068400200F18380306820
:1023B000800703D5E068012840F052813068216928
:1023C00020F0F80040EAC10030602078000713D404
:1023D000207840072AD4A569002D00F03C81B06820
:1023E00000F00C00082840F0A180012D40F0108181
:1023F000012002B0BDE8F0816069002840F20000D1
:10240000C4F2472000F07E800121C0F8801EFFF753
:1024100075FD0546706F8007DAD4FFF76FFD401B2E
:102420000228F7D9032002B0BDE8F081306C5FEAE2
:10243000C0080AD400200190306C40F08050306415
:10244000306C00F080500190019847F20007C4F210
:1024500000073868C00547D4386840F48070386099
:10246000FFF74CFD054600BF3868C0053CD4FFF7B8
:1024700045FD401B0228F7D9032002B0BDE8F081DA
:10248000B06800F00C00082803D1706840023FF5E6
:1024900076AF6068B0F5803F07D0B0F5A02F40F070
:1024A0009B80306840F480203060306840F4803099
:1024B00030609BE0E06800285CD00020C4F2472038
:1024C00001210160FFF71AFD054600BF3068800753
:1024D0003FF574AFFFF712FD401B0228F6D9032029
:1024E00002B0BDE8F08100BFA068012805D0052832
:1024F00054D1306F40F004003067306F40F001007D
:10250000306755E00021C0F8801EFFF7F7FC054654
:10251000706F80077FF55CAFFFF7F0FC401B02286F
:10252000F6D9032002B0BDE8F08100BF0027C4F255
:10253000472700203866FFF7E1FC022D05460DD144
:102540003068800140F19080FFF7D8FC401B0228E2
:102550004FF00300F4D902B0BDE8F081306880018B
:1025600079D5FFF7CBFC401B02284FF00300F5D9CB
:10257000F1E700BF0020C4F2472000210160FFF70F
:10258000BDFC0546306880077FF51FAFFFF7B6FC3E
:10259000401B02284FF00300F4D9DCE7316F00281C
:1025A00021F001013167316F21F0040131677DD0E5
:1025B000FFF7A4FC054641F2883700BF306F800763
:1025C00000F18680FFF79AFC401BB842F6D9032041
:1025D00002B0BDE8F08100BF3168002821F48031ED
:1025E0003160316821F4802131607BD0FFF786FCB7
:1025F000054600BF306880033FF5C8AEFFF77EFC9C
:10260000401B6428F6D9032002B0BDE8F08100BF6A
:102610007068E16900F480028A4221D1216A00F0E9
:102620003F028A421CD147F6C071626A0140B1EB99
:10263000821F15D1A16A4FF6FF73C903994300F4B5
:102640004032A1F580318A420AD1E16A00F070601F
:10265000B0EB016F04D1002002B0BDE8F08100BFF3
:10266000012002B0BDE8F08104F11C052FCD084324
:1026700040EA8210D9034FF6FF729143A1F58031F1
:1026800040EA05600843706001203866FFF736FCB9
:10269000044600BF30688001DDD4FFF72FFC001B2B
:1026A00002284FF00300F5D955E700BFFFF726FCDD
:1026B000054641F2883700BF306F800708D5FFF725
:1026C0001DFC401BB8424FF00300F5D943E700BFA3
:1026D000B8F1000F3FF57FAE306C20F080503064D1
:1026E00079E600BFFFF70AFC054600BF30688003AB
:1026F0007FF54CAEFFF702FC401B64284FF003004F
:10270000F4D928E770B538B10446406A30B10020EA
:10271000206104F1140007E0012070BD6068B0F58D
:10272000827F03D004F11C00002101600026A66214
:1027300094F8510020B9204684F8506000F03CF82D
:10274000022084F8510094E80F0001F482710568BA
:1027500002F4044225F040050560114403F40062D0
:102760002369114403F002026369114403F001027A
:10277000A369E569114403F40072114405F03802BD
:10278000256A114405F08002A56A114305F4005240
:1027900011430160626A042101EA134102F0100250
:1027A00011444160C16921F40061C1610120666585
:1027B00084F85100304670BD016843F60000C4F251
:1027C0000000814218BF704780B586B0002143F6F3
:1027D00030020191C4F20202136900F5E63043F4BD
:1027E00080431361136903F480430193019B0191BA
:1027F000136843F002031360126802F002020192B0
:10280000019A4FF4604201920222CDE90221032194
:1028100004910521059101A9FFF792FA06B0BDE8E0
:10282000804070472DE9F04383B01E4615460F46A1
:102830000446FFF763FB94F851108146012909D142
:10284000002F4FF0010018BF002D0FD103B0BDE8DD
:10285000F08300BF6068B0F5827F0DD104294FF08E
:102860000200F3D1A1680029EAD0EFE7002EEDD0F5
:1028700094F85000012803D1022003B0BDE8F08392
:10288000012084F8500094F85100002104281CBF56
:10289000052084F851006165A563E687A687276354
:1028A000E6862068A686216461640168490603D42F
:1028B000016841F0400101606168731EE268B1FA8D
:1028C00081F1B3FA83F3DDF8288049095B09B2F599
:1028D000006F41EA030165D131B137F8021BC160D5
:1028E0002763E08E0138E086012518F1010032D11E
:1028F00002E000BFFFF702FBE08E18B9E08F00286E
:1029000000F0B8802068816889070CD5E18E51B14C
:10291000012D08D1216B002531F8022BC260216303
:10292000E18E0139E1868168C907E3D0E18F002992
:10293000E0D0C068A16B012521F8020BA163E08FF4
:102940000138E087D6E700BFFFF7D8FAA0EB09000F
:10295000404580F0A580E08E18B9E08F002800F097
:1029600089802068816889070CD5E18E51B1012DDD
:1029700008D1216B002531F8022BC2602163E18E62
:102980000139E1868168C907DED0E18F0029DBD0FB
:10299000C068A16B012521F8020BA163E08F01380B
:1029A000E087D1E739B139780173206B01302063BA
:1029B000E08E0138E086012518F1010032D101E0F6
:1029C000FFF79CFAE08E10B9E08F002852D0206803
:1029D000816889070ED5E18E61B1012D0AD1216B85
:1029E000002509780173216B206801312163E18E94
:1029F0000139E1868168C907E2D0E18F0029DFD083
:102A0000C068A16B01250870A06B0130A063E08F46
:102A10000138E087D4E700BFFFF770FAA0EB0900A8
:102A200040453DD2E08E08B9E08F18B32068816838
:102A300089070ED5E18E61B1012D0AD1216B0025E8
:102A400009780173216B206801312163E18E01391E
:102A5000E1868168C907DFD0E18F0029DCD0C0683A
:102A6000A16B01250870A06B0130A063E08F0138D5
:102A7000E087D1E72046022101224346CDF80090AD
:102A800001F0E2F9B0B1606D40F0200060652020F7
:102A90006065002084F85000012003B0BDE8F08399
:102AA000012084F85100002084F85000032003B076
:102AB000BDE8F08340F21400C2F20000006849F65D
:102AC0008171C1F25E61A0FB0101480D4FF47A7182
:102AD000484302906068B0F5827F21D12046802172
:102AE00000224346CDF8009001F0AEF90028CAD18B
:102AF000A06838B9002001902068C1680191806801
:102B000001900198012084F85100002084F85000C1
:102B1000606D002818BF012003B0BDE8F08300BF3E
:102B200002980028E4D0029801380290206880685A
:102B30000006DDD502980028DAD00298013802900C
:102B4000206880680006D3D502980028D0D002986B
:102B500001380290206880680006C9D502980028D4
:102B6000C6D0029801380290206880680006D7D449
:102B7000BEE700007047000070470000002804BF57
:102B80000120704710B5044690F83D0028B9002098
:102B900084F83C00204600F01FF8022084F83D0035
:102BA0002068211D01F076FA012084F8460084F89F
:102BB0003E0084F83F0084F8400084F8410084F827
:102BC000420084F8430084F8440084F8450084F807
:102BD0003D00002010BD00007047000090F83D103F
:102BE00001291CBF01207047022180F83D100068B8
:102BF00041F2FF72C168C4F20002904241F001014B
:102C0000C1600DDC40F2FF71C4F20001884215DCA6
:102C1000B0F1804F2AD040F20041C4F2000123E01D
:102C200040F2FF31C4F20101884213DC41F6000199
:102C3000C4F20001884219D0002113E040F60001DF
:102C4000C4F20001884211D040F60041C4F20001F4
:102C50000AE000BF44F20001C4F20101884205D03D
:102C600040F20041C4F20101884206D1816801F0BE
:102C70000701062904BF00207047016841F00101E7
:102C800001600020704700007047000070B50446E6
:102C90000068C5680669B10716D515F0020113D0A2
:102CA0006FF002010161012121778069800703D063
:102CB0002046FFF7E9FF05E0204600F08FF82046A8
:102CC00000F08EF800202077700719D515F0040069
:102CD00016D020686FF0040101610221217780691C
:102CE00010F4407F04D02046FFF7CEFF06E000BF7F
:102CF000204600F073F8204600F072F8002020779C
:102D0000300717D515F0080014D020686FF00801BF
:102D1000016104212177C069800703D02046FFF7B5
:102D2000B3FF05E0204600F059F8204600F058F8BF
:102D300000202077F00619D515F0100016D0206875
:102D40006FF01001016108212177C06910F4407F04
:102D500004D02046FFF798FF06E000BF204600F0B1
:102D60003DF8204600F03CF800202077F00718BF1F
:102D700015F0010002D1300609D412E020686FF08E
:102D800001010161204600F02DF8300609D515F04B
:102D9000800006D020686FF0800101612046FFF7B7
:102DA000E9FE700609D515F0400006D020686FF0E6
:102DB00040010161204600F01DF8B00658BF70BD0B
:102DC00015F0200008D021686FF0200220460A612B
:102DD000BDE87040FFF7D0BE70BD00007047000036
:102DE000704700000068B0F1804F18BF7047FFF7D0
:102DF0008BB800007047000070470000704700006B
:102E0000002804BF0120704710B5044690F8410027
:102E100028B9002084F84000204600F021F8242042
:102E200084F841002068C16821F40051C160204647
:102E300001F050FB2068016921F490410161416972
:102E400021F02A014161C16841F40051C1600020B4
:102E50002021606484F8411084F84210606310BD42
:102E60002DE9F04786B00446006844F6FF71C4F2CD
:102E7000000188424FF000010591CDE90311CDE931
:102E800001116DDD45F20001C4F20001884200F03D
:102E9000E98041F20001C4F20101884200F026817C
:102EA00041F20041C4F20101884240F0A4810026B1
:102EB00043F630000096C4F20200416941F020015F
:102EC0004161416901F0200100910099009601687B
:102ED00041F004010160006801A900F004000090C5
:102EE0000098C02001900220CDE902060320049042
:102EF0000820059040F60000C4F20200FEF720FF13
:102F000046F24000C4F2020040F2D46500F57A7047
:102F1000C2F200054FF0206185E843004FF44030D5
:102F20004FF480624FF48073C5E908062846C5E96E
:102F30000362C5E90566EB61FEF7EAFD002818BFEC
:102F4000FEF792F8472004210022E563AC63FFF707
:102F500095F84720FFF780F806B0BDE8F08700BF7E
:102F600044F20041C4F20001884200F0198144F6A5
:102F70000041C4F20001884240F03D81002643F642
:102F800030000096C4F20200016946F2400841F4A4
:102F9000002101610169C4F2020801F400210091DD
:102FA00000990096016841F004010160006801A9E0
:102FB00000F00400009000984FF44060019002205F
:102FC000CDE90206032004900820059040F6000099
:102FD000C4F20200FEF7B4FE40F2B455C2F200059E
:102FE0004FF0006A4FF480694FF440372846C5E936
:102FF000008AC5E90266C5E90496C5E90666C5E921
:103000000876FEF785FD002818BFFEF72DF8E5636A
:10301000AC6340F2146508F13000C2F200054021B3
:10302000C5E9000A05F108004FF4807280E8420209
:103030002846C5E90566EA61C5E90876FEF768FD38
:10304000002818BFFEF710F8342004210022A563E1
:10305000AC63FFF713F83420FEF7FEFF06B0BDE8BF
:10306000F08700BF002643F630000096C4F202004D
:10307000016940F6000441F4801101610169C4F264
:10308000020401F48011009100990096016801ADDD
:1030900041F00401016001684FF0020801F00401F1
:1030A00000910099009601684FF0030941F0080172
:1030B00001600068082700F00800009000984FF4B5
:1030C0008050019020462946CDE90286CDF8109027
:1030D0000597FEF735FE0420CDE90108CDE9036927
:1030E000059704F58060294683E000BF002643F67B
:1030F00030000096C4F20200416941F010014161C4
:10310000416901F01001009100990096016841F0B9
:1031100001010160006801A900F001000090009821
:103120004FF4C06001900220CDE902060320049014
:103130000720059040F60000C4F20200A0F50060F0
:10314000FEF7FEFD46F24000C4F2020040F2746554
:1031500000F58060C2F200054FF0006185E8430091
:103160004FF440304FF48062C5E908062846C5E9AF
:103170000362C5E90566EE61FEF7CAFC002818BFC8
:10318000FDF772FF252004210022E563AC63FEF702
:1031900075FF2520FEF760FF06B0BDE8F08700BF91
:1031A000002043F630010090C4F202010A6942F4A3
:1031B00000320A610A6902F400320092009A00901B
:1031C0000A6842F008020A60096801F008010091EB
:1031D0000099602101910221CDE9021003200490A1
:1031E0000720059040F60000C4F2020000F5806060
:1031F00001A9FEF7A5FD06B0BDE8F08770B582B065
:10320000044690F8420020280AD113460A460029B5
:103210004FF0010018BF002B06D102B070BD00BFF7
:10322000022002B070BD00BF002622202663A262E9
:10323000A385666484F84200E06B44F25D3C44F28E
:10324000BD452168C0F6000CC0F60005C0E90FC5F9
:1032500044F2E115C0F600050431C0E91356FEF74B
:1032600009FD01962068016801914068019001986C
:10327000206928B3206850E8030F216840F480706B
:1032800041E80302E2B1206850E8030F216840F4EE
:10329000807041E803029AB1206850E8030F21686A
:1032A00040F4807041E8030252B1206850E8030FF7
:1032B000216840F4807041E80302002ADAD100BF9F
:1032C000206850E8050F216840F0010041E8050240
:1032D000BAB3206850E8050F216840F0010041E8CA
:1032E000050272B3206850E8050F216840F0010024
:1032F00041E805022AB3206850E8050F216840F034
:10330000010041E80502002ADAD11AE0206850E8FD
:10331000050F216840F0400041E80502DAB120685D
:1033200050E8050F216840F0400041E8050292B1E5
:10333000206850E8050F216840F0400041E8050290
:103340004AB1206850E8050F216840F0400041E88C
:103350000502002ADAD1002002B070BD006844F6F0
:103360000041C4F20001884218BF704780B540F2A6
:10337000241E0020C2F2000E03E000BF0530142816
:103380005AD00EEB00010A4612F8163FFF2B0BD164
:10339000CB7FFE2B08D1B2F808C013685268AEF894
:1033A00008C0CEE9003200BF0A4612F8173FFF2BD3
:1033B0000CD191F82030FE2B08D1B2F808C0136868
:1033C0005268AEF808C0CEE9003200BF0A4612F8D3
:1033D000183FFF2B0CD191F82130FE2B08D1B2F809
:1033E00008C013685268AEF808C0CEE9003200BFCA
:1033F0000A4612F8193FFF2B0CD191F82230FE2B10
:1034000008D1B2F808C013685268AEF808C0CEE917
:10341000003200BF0A4612F81A3FFF2BAED191F8D6
:103420002310FE29AAD1118913685268AEF808103A
:10343000CEE90032A2E700BF9EF80000BEF80110FE
:103440008EF80A0008BABEF80310000CAEF80C00A3
:1034500008BABEF80510000CAEF80E0008BA9EF8C7
:1034600009C0000CBEF80710AEF8100040F664006A
:10347000AEF812100EF11601C2F2000014228EF8FE
:1034800014C0BDE88040FFF7B9BE000070470000DF
:10349000FEE7000000F002F8FCE7000040F63C14F4
:1034A000C2F20004B7EE008ADFEDBC0A9FEDBC1A41
:1034B0002046B0EE480A01F0ABFB40F2AC474DF2BB
:1034C0004E1040F2001540F23C2640F218089FEDE5
:1034D000B5AA9FEDB5BA9FEDB5CA9FEDB5DA9FEDE0
:1034E000B6EA9FEDB4FAC2F20007C3F61140C2F289
:1034F0000005C2F20006B6EE009AC2F200084FF0D4
:1035000000094FF0010AFFEE008A386407E000BFAF
:1035100030EE080A85ED020A012001F0DBFC2846A6
:10352000FDF7D6FC304685ED010A84ED020AFCF772
:10353000C5FF06F10C0090EC030AD6EC031A07F164
:10354000100080EC060A05F10C00C0EC031A05F12E
:10355000180080EC030A204601F074FB204601F0BD
:1035600093FB204601F072FB204600F013FC94ED23
:103570000E2A94ED0C0A94ED0D1A94ED0F3A22EEFA
:10358000427A37EE094A63EE430A60EE031A61EEAF
:10359000022AD8ED013AD8ED004A30EE845A32EED4
:1035A000A14A24EE236A65EE245AD8ED026A61EE40
:1035B000037A60EE029A72EEE11A61EE012A75EE6C
:1035C000865A37EEE96A79EE622A66EE26AA70EE2E
:1035D000A20A7AEEA55A60EEA3AA61EEA4BA7BEE27
:1035E000AAAA60EE01BA62EE03CA77EEA97A7CEE6F
:1035F000EB9A69EEA33A67EEA44A37EE227A74EEAC
:10360000A33A67EE262A7CEEABDA72EEA32AD7ED58
:10361000073A6DEEA6EA75EEA54A7EEEAAAA73EE0B
:10362000E43AD7ED084A7AEEAA5A74EEE54AD7EDA5
:10363000095A72EEA22AD5ED016A75EEE22AD7ED9B
:10364000105AD7ED0AAAD7ED0BBAD7ED0CCA63EE24
:10365000A63A64EEA64A62EEA62A76EEA56A65EE62
:10366000AAAA65EEABBA65EEAC5AC3EEA63ACAEEAC
:10367000A6AAC4EEA64ACBEEA6BAC2EEA62AC5EE0C
:10368000A65A87ED000A87ED011A87ED022A87ED19
:10369000033A33EEAA0A25EE005A34EEAB1A21EEB5
:1036A000813A32EEA52A35EE033A27EE825A35EEFC
:1036B000033A20EE815A24EE004A87ED0B1A2DEED4
:1036C000811A87ED0A0A26EE000A30EE010A27EE7B
:1036D000021A34EE054A29EE825A31EE000A33EE20
:1036E000031A35EE044A87ED0D1AB0EEC11AB4EE96
:1036F0004A1A34EE041A87ED0E1A30EE000AB0EEC4
:10370000C11AF1EE10FA87ED0F0AB4EE4A1AB0EEC4
:10371000C00A87ED0C2AB8BFC7F83490F1EE10FA52
:10372000B4EE4B0AB8BFC7F83890F1EE10FAB8BF44
:10373000C7F83C9095ED020AB4EE4C0AF1EE10FA8F
:103740007FF7E6AE94ED1B0A97ED201AD4E9191025
:1037500030EE412AB4EE4D2AF1EE10FA87F890A02F
:10376000C7E91C1087ED1E0A04DD97ED211A31EE22
:10377000281A08E097ED211AB4EE4F2AF1EE10FA5C
:1037800003DA31EE081A87ED211A21EE0E1A31EE16
:10379000001A87ED1F1A87ED200ABDE60000000021
:1037A0006F12833A0AD7A33C0AD7233D00803B45DA
:1037B000DA0F4940DA0F49C0560EC94080B540F2D1
:1037C000405046F20041C2F20000C4F20001032260
:1037D000002380E80E0000F10C014FF4102C4FF490
:1037E000001E81E8085083618383FDF7E5FE002811
:1037F00008BF80BDBDE88040FDF736BC80B540F213
:10380000685046F60001C2F20000C4F20001032233
:10381000002380E80E0000F10C014FF4102C4FF44F
:10382000001E81E8085083618383FDF7C5FE0028F0
:1038300008BF80BDBDE88040FDF716BC80B582B0F2
:10384000002043F630010190C4F202010A6842F4FC
:1038500080020A600A6802F480020192019A0090D4
:103860000868002240F4001008600868052100F490
:103870000010009000980D20FEF700FC0D20FEF7D0
:10388000EBFB0F2005210022FEF7F8FB0F20FEF7CF
:10389000E3FB392005210022FEF7F0FB3920FEF77B
:1038A000DBFB3A2005210022FEF7E8FB3A2002B0BC
:1038B000BDE88040FEF7D0BB70B59CB025480DF147
:1038C000580E159023A000F1040C9CE81E1080698E
:1038D0008EE81E101B9015A8002101F009FB40F294
:1038E0008806C2F200062249306021A0051D0E9113
:1038F0003ECD80690DF13C0C8CE83E0014900EA882
:10390000002101F0F5FA2149706020A0051D079102
:103910002ECDD0E905400DF1200C8CE82E00CDE92C
:103920000C4007A8002101F0E3FA1F49B0601EA077
:10393000051D00912ECDD0E905400DF1040C8CE859
:103940002E00CDE905406846002101F0D1FAF06073
:103950001CB070BDC1640008953F00080000000065
:1039600000000000800000000000000000000000D7
:10397000AD6400089534000803000000000000005A
:10398000000200000000000000000000A064000829
:10399000E1490008010000000000000000020000F2
:1039A0000000000000000000B66400085547000851
:1039B0000100000000000000800000000000000086
:1039C000000000002DE9F04786B0002443F63000E7
:1039D00005940094C4F20200016840F6000841F02A
:1039E000100101600168C4F2020801F010010091A9
:1039F00000990094016808F5006641F080010160BB
:103A00000168002201F08001009100990094016892
:103A10004FF01C0941F004010160016801F004014C
:103A2000009100990094016841F002010160016871
:103A300001F00201009100990094016841F0080131
:103A40000160016801F0080100910099009401688B
:103A500041F00101016000681C2100F001000090AC
:103A600000983046FEF744FA404601210022012723
:103A7000FEF73EFA08F5806528464FF420610022E3
:103A80004FF4206AFEF734FACDE901970DF10409ED
:103A900030464946CDE90344FEF752F940464946CF
:103AA000CDE90177CDE90344FEF74AF928464946B6
:103AB000CDE901A7CDE90344FEF742F906B0BDE820
:103AC000F0870000B0B540F2347043F60001C2F256
:103AD0000000C4F200014FF48272002380E80E005F
:103AE00000F10C014FF0020C4FF0010E4FF4007486
:103AF000382581E808500A21C0E90645C0E90833A5
:103B0000C0E90A31FEF7FEFD002808BFB0BDBDE8E0
:103B1000B040FDF7A9BA000080B540F6640044F655
:103B20000041C2F20000C4F2000100234FF00C0C6F
:103B30004FF4E13280E80E00C0E90333C0E905C369
:103B4000C361FFF75DF9002808BF80BDBDE8804074
:103B5000FDF78ABA80B540F6AC0045F20001C2F22A
:103B60000000C4F2000100234FF00C0C4FF4E132CE
:103B700080E80E00C0E90333C0E905C3C361FFF765
:103B80003FF9002808BF80BDBDE88040FDF76CBA52
:103B900080B540F2D47041F20001C2F20000C4F2DC
:103BA000010100234FF00C0C4FF4E13280E80E00CD
:103BB000C0E90333C0E905C3C361FFF721F9002859
:103BC00008BF80BDBDE88040FDF74EBA80B540F625
:103BD0001C0044F20041C2F20000C4F200010023C4
:103BE0004FF00C0C4FF4E13280E80E00C0E90333D3
:103BF000C0E905C3C361FFF703F9002808BF80BD12
:103C0000BDE88040FDF730BAB0B540F6F40041F2AF
:103C10000041C2F20000C4F2010148F2A062042493
:103C20000025C0F201024FF480534FF4005C4FF4C2
:103C3000806E80E80E50C0E90545C561FFF7E0F8E9
:103C4000002808BFB0BDBDE8B040FDF70DBA0000C8
:103C5000FEE70000FEE7000090ED004A90ED015AFB
:103C600030EEC02A80ED0C0A22EE040A90ED0F4AD5
:103C700090ED093A25EE025A35EE044A90ED061A07
:103C8000B4EE434AF1EE10FAC0ED0B0A80ED062ABD
:103C900080ED071A80ED0E0A80ED0F4A06DCB1EECA
:103CA000433AB4EE434AF1EE10FA03DAB0EE434A77
:103CB00080ED0F3A90ED023A32EE412A90ED0A1A69
:103CC00022EE032A30EE040A32EE000AB4EE410A74
:103CD000F1EE10FA80ED102A80ED0D0A07DCB1EE4E
:103CE000411AB4EE410AF1EE10FAA8BF7047B0EEE7
:103CF000410A80ED0D1A70470A6802604A68426006
:103D0000896880ED090A81600021C0ED0A0AC0E9D6
:103D10000311C0E90511C0E90711C0E90D11C0E99F
:103D20000F117047000000000000000000000000BC
:103D3000EFF30980BFF36F8F154B1A681EF0100F59
:103D400008BF20ED108A20E9F04F10602DE909002E
:103D50004FF0500080F31188BFF34F8FBFF36F8F88
:103D600001F0A0FD4FF0000080F31188BDE80900CC
:103D700019680868B0E8F04F1EF0100F08BFB0ECEB
:103D8000108A80F30988BFF36F8F704700BF00BFB0
:103D90005001002090ED0C0A90ED0D1A90ED0E2AC6
:103DA00090ED0F3A21EE014A22EE025A23EE036A09
:103DB00021EE007A62EE000A23EE000A61EE021A9A
:103DC00021EE031A22EE032AB8EE003A25EE035A3A
:103DD000F7EE002A75EE223A26EE033A33EE236A16
:103DE00080ED106A31EEC06A31EE800A30EE000AD2
:103DF00036EE066A80ED130A34EE040A80ED116A8D
:103E000031EE206A32EEC00A31EE601A33EE003A2B
:103E100031EE011A80ED143A32EE473A80ED161A6F
:103E200032EE071A36EE066A33EE033A31EE011A25
:103E300035EE000A80ED126A80ED153A80ED171A12
:103E400080ED180A704700002DE9F04381B0089C0E
:103E5000984615460E468146FEF750F8201A00EBAC
:103E60000804FEF74BF840F21401C2F200010968A1
:103E7000C1F3CB3161430091D9F800108A68324018
:103E8000921BB2FA82F25209AA423DD0074618F1BB
:103E9000010031D0FEF732F8C01BA04238D20098A2
:103EA00000990028A1F101010091D9F8001089685A
:103EB00008BF044601EA0600801BB0FA80F0400902
:103EC000A842E7D120E000BF88683040801BB0FAEC
:103ED00080F04009A84217D088683040801BB0FAB3
:103EE00080F04009A8420FD088683040801BB0FAAB
:103EF00080F04009A84207D088683040801BB0FAA3
:103F000080F04009A842DFD1002001B0BDE8F08375
:103F1000D9E900014268B1F5827F22F0E0024260F7
:103F20000BD1D9F80810B1F5004F02D0B1F5806F70
:103F300003D1016821F040010160D9F82810B1F5E2
:103F4000005F07D1016821F400510160016841F46C
:103F500000510160012089F85100002089F85000CB
:103F6000032001B0BDE8F083000000000000000065
:103F7000074B19680868B0E8F04F80F30988BFF371
:103F80006F8F4FF0000080F31188704700BF00BFB3
:103F900050010020012000F09DFFFBE780B54FF0AD
:103FA000500080F31188BFF36F8FBFF34F8F01F084
:103FB000E1FD30B14EF60450CEF200004FF08051DA
:103FC0000160002080F3118880BD0000B0B592B080
:103FD000002443F64000CDE90A44CDE908440594A5
:103FE000CDE90344CDE901440094C4F20200016824
:103FF000022541F080510160006800F0805000907F
:10400000009847F200000094C4F20000016841F4F7
:1040100080410160006800F4804000900098012019
:1040200006904FF4803007904FF480000D900620EA
:104030000E90A820CDE90F050420119006A80C953C
:10404000FEF788F910B172B6FEE700BF0F20CDE988
:1040500001054FF4A05004904FF48050059001A842
:1040600005210394FEF746F810B172B6FEE700BFD3
:1040700012B0B0BD4EF68850CEF20000016841F497
:10408000700101607047000040F28C70C2F20000C5
:10409000FEF7FCBD10B540F6FF3E0368C4F2000E0B
:1040A00040F2004C7045C4F2010C27DCB0F1804FA7
:1040B00031D040F20042C4F2000290422BD040F6D0
:1040C0000002C4F20002904225D041F6FF72C4F211
:1040D0000002904229DC70453CDCB0F1804F5FD09B
:1040E00040F20042C4F20002904259D040F6000271
:1040F000C4F20002904253D056E000BF40F60042A6
:10410000C4F20002904206D0604504D00022C4F2FE
:1041100001029042D9D14A6823F07003134341F65B
:10412000FF72C4F200029042D5DD43F6FF72C4F282
:104130000102904222DC42F20002C4F200029042EC
:104140002ED00022C4F20102904229D0604527D02F
:104150002AE000BF40F60042C4F2000290421FD0A5
:1041600041F60002C4F20002904219D041F600422A
:10417000C4F20002904213D016E000BF44F20002E5
:10418000C4F2010290420BD044F60002C4F20102D4
:10419000904205D044F20042C4F20102904203D1A1
:1041A000CA6823F44073134323F080024B69D1F8AB
:1041B00000E08C681A430260C46240F48062C0F878
:1041C00028E0624504BF0969016301214161016979
:1041D000C90708BF10BD016921F00101016110BDCF
:1041E000806B01684A6990F84130212B2DD112F083
:1041F00080022AD00021C184016851E8031F0268AF
:1042000021F0C00142E80313DBB1016851E8031F4C
:10421000026821F0C00142E8031393B1016851E83C
:10422000031F026821F0C00142E803134BB101688B
:1042300051E8031F026821F0C00142E80313002B7C
:10424000DAD1202180F841100168496990F84220B4
:10425000222A40F07D8011F0400179D00021C185F3
:10426000016851E8031F026821F4907142E80313CA
:10427000BBB3016851E8031F026821F4907142E862
:10428000031373B3016851E8031F026821F49071AE
:1042900042E803132BB3016851E8031F026821F4BD
:1042A000907142E80313002BDAD11AE0016851E85B
:1042B000051F026821F0010142E80513DBB1016826
:1042C00051E8051F026821F0010142E8051393B18E
:1042D000016851E8051F026821F0010142E8051359
:1042E0004BB1016851E8051F026821F0010142E865
:1042F0000513002BDAD1016B012924D1016851E8A3
:10430000031F026821F0100142E80313DBB10168CA
:1043100051E8031F026821F0100142E8031393B132
:10432000016851E8031F026821F0100142E80313FD
:104330004BB1016851E8031F026821F0100142E807
:104340000313002BDAD1202180F8421000210163F1
:10435000416C41F010014164FEF750BD0168806B73
:104360000968C90500F19F800021C185016851E8F5
:10437000031F026821F4807142E80313E3B101686E
:1043800051E8031F026821F4807142E803139BB1D6
:10439000016851E8031F026821F4807142E80313A9
:1043A00053B1016851E8031F026821F4807142E8AB
:1043B0000313002BDAD100BF016851E8051F026822
:1043C00021F0010142E80513BBB3016851E8051F64
:1043D000026821F0010142E8051373B3016851E856
:1043E000051F026821F0010142E805132BB30168A3
:1043F00051E8051F026821F0010142E80513002B76
:10440000DAD11AE0016851E8051F026821F0400185
:1044100042E80513DBB1016851E8051F026821F08D
:10442000400142E8051393B1016851E8051F026895
:1044300021F0400142E805134BB1016851E8051F26
:10444000026821F0400142E80513002BDAD1202157
:1044500080F84210016B012925D100BF016851E8A5
:10446000031F026821F0100142E80313DBB1016869
:1044700051E8031F026821F0100142E8031393B1D1
:10448000016851E8031F026821F0100142E803139C
:104490004BB1016851E8031F026821F0100142E8A6
:1044A0000313002BDAD100214163016B012918BFEE
:1044B000FEF754BF818DFEF79FBC0000806B012189
:1044C0004163016B012918BFFEF7E0BF818D4908E8
:1044D000FEF792BC10B504460068D4E902C2236915
:1044E000016921F4405111430161626943EA0C0101
:1044F000E3691143C268194349F20C639A431143BB
:10450000C1604169A26921F4407141F20043114345
:1045100040F48062C4F201039A42416102D1FDF786
:10452000CFFE01E0FDF7B8FEE16963681922B1F53D
:10453000004FA0FB020123D15A00DB0FFBF7AAFEBC
:1045400048F21F51C5F2EB11A0FB01235A094FF6A7
:104550009C73C0F6FF7303F1805302FB0300322308
:1045600003EBC000A0FB01014FF4F87000EA11104A
:1045700000EB0210C1F3421108442168886010BDAD
:104580009A009B0FFBF786FE48F21F51C5F2EB1114
:10459000A0FB01235A094FF69C73C0F6FF7302FB80
:1045A0000300322303EB0010A0FB0101F02000EA1E
:1045B000511000EB0210C1F34311084421688860D8
:1045C00010BD0000B0B582B040F6F400C2F20000A9
:1045D0000068016889065FD441F20041C4F201011C
:1045E0000968C90640F1A6800021009101682423D2
:1045F000009140680090009840F2D460C2F2000040
:10460000006801680268090322F001020260426842
:10461000436091B24AD40268122942F40022026037
:10462000026842F00102026040F0848040F298008B
:10463000C2F20000C27D90F819C090F816E0037E27
:10464000D5084FEA8C0C817E62F30A2E63F34A157B
:104650004CEA9313C27E61F38A23490862F3CA11BC
:10466000C2F301149209C272D0F81E208472848BA6
:10467000C0F80E20AEF580628481D0F8224002801E
:10468000A5F580624280A3F58062C0F81240828066
:10469000A1F580614DE000BF002101910168019109
:1046A00040680190019802B0B0BD00BF46F22842B8
:1046B000C4F202021368122923F400231360026873
:1046C00042F00102026035D140F29800C2F20000CF
:1046D00090F828C090F8292090F82B5090F82A30B4
:1046E00062F30A2CD208AD0063F34A1245EA931331
:1046F00090F82D5090F82C40C5F301118172A90952
:10470000C172016B64F38A23640865F3CA14C58D12
:10471000C0F80E10ACF580610180A2F58061858142
:10472000456B4180A3F580618180A4F58061C0F86C
:104730001250C18002B0B0BD40F22410C2F200009D
:1047400000F1160140F66400C2F200001422FEF7E8
:1047500055BD000000F002F8FCE7000070470000C3
:10476000FEE7000070B5FBF78BFE8020FCF7EAFA4D
:104770005520FCF7E7FA5520FCF7E4FA40F218253B
:10478000C2F200056870FBF771FE0120FDF7C4FA64
:10479000FBF776FE8020FCF7D5FA5520FCF7D2FA1D
:1047A0005520FCF7CFFA6870FBF760FE0120FDF79B
:1047B000B3FAFBF765FE7E20FCF7C4FAB620FCF7DF
:1047C000C1FAFBF753FE5020FDF7A6FAFBF758FE9F
:1047D0008020FCF7B7FA5520FCF7B4FA5520FCF717
:1047E000B1FA6870FBF742FE0120FDF795FAFBF77E
:1047F00047FE8020FCF7A6FA5520FCF7A3FA5520C7
:10480000FCF7A0FA6870FBF731FE0120FDF784FA8F
:1048100068781E281CBFFF2070BD46F2CD460020E0
:10482000C0F60006A87004E00130C1B20629A870E5
:1048300034D2FBF725FEA87800EB40003118305C3D
:104840004C78FCF77FFA2046FCF77CFAFBF70EFE6B
:104850000120FDF761FAFBF713FEA87800EB40009A
:10486000305C40F08000FCF76DFA5520FCF76AFAE6
:104870005520FCF767FA6870FBF7F8FD0120FDF79B
:104880004BFAA8786A7800EB400131444B789A42A1
:10489000CAD089782A7811432970C5E7002070BDF5
:1048A000F0B581B0FBF700FE8020FCF74BFA5520F5
:1048B000FCF748FA40F21825C2F200056870FBF7D1
:1048C000E9FD0120FDF728FAFBF7EEFD8020FCF75B
:1048D00039FA5520FCF736FA6870FBF7DBFD01204A
:1048E000FDF71AFAFBF7E0FD1420FCF72BFAB620CF
:1048F000FCF728FAFBF7CEFD5020FDF70DFAFBF789
:10490000D3FD8020FCF71EFA5520FCF71BFA6870D7
:10491000FBF7C0FD0120FDF7FFF9FBF7C5FD802087
:10492000FCF710FA5520FCF70DFA6870FBF7B2FDA2
:104930000120FDF7F1F968780F2849D146F2DF46EA
:1049400046F2CD470020C0F60006C0F60007A8706A
:1049500005E000BF0130C1B20629A8703CD2FBF7C8
:10496000A3FDA87800EB40003118305C4C78FCF7D0
:10497000E9F92046FCF7E6F9FBF78CFD0120FDF78D
:10498000CBF9FBF791FDA87800EB4000305C40F0DC
:104990008000FCF7D7F95520FCF7D4F96870FBF7D5
:1049A00079FD0120FDF7B8F9A878697800EB40029D
:1049B000324452789142CDD00138C1B2490051FA07
:1049C00080F1394489782A7811432970C2E700BF01
:1049D000FF2001B0F0BD00BF002001B0F0BD00001D
:1049E00000F002F8FCE700002DE9F04F81B02DED5A
:1049F000048B94B008AD281D2C21FBF7C3FC40F6B6
:104A0000C0190020C2F200099FED7F8A9FED7F9AB6
:104A1000C4F2C00009F10C0B08900B900E9011909D
:104A200058462946B0EE480AF0EE490A05F10C0650
:104A300005F1180705F12404FFF75EF909F1740880
:104A400040463146B0EE480AF0EE490AFFF754F905
:104A500009F1DC0528463946B0EE480AF0EE490A6D
:104A6000FFF74AF909F5A27630462146B0EE480A2A
:104A7000F0EE490AFFF740F940F22E10C2F20000B2
:104A8000017A40F280270229C2F200075CD0427A04
:104A9000022A59D001295FD1B0F9021046F26763AA
:104AA000594307964E14B0F9042006EBD17649F627
:104AB0009911B0F90600CFF6FF7151434A145843DB
:104AC00002EBD174411401EBD071301B0844059105
:104AD000CDE9026401F0ADFB9FED490B53EC10AB47
:104AE0005246049301F0BCFB01F072FB08EE100A81
:104AF000C7F8AC01A019059E0690304401F099FB5F
:104B0000049C5246234601F0ABFB01F061FBC7F861
:104B1000B001DDE90210401A304401F08AFB524630
:104B2000234601F09DFB01F053FBC7F8B401069842
:104B3000301A079E01F07DFB5246234601F090FBA0
:104B400001F046FB05E000BF0020C7E96B00C7F895
:104B5000B401C7F8B80101E097ED6B8AB9F902001A
:104B6000F0EE480A00EE100AB8EEC00A5846FFF709
:104B700073F8B9F96A00D7ED6C0A00EE100AB8EEC6
:104B8000C00A4046FFF768F8B9F9D200D7ED6D0AC0
:104B900000EE100AB8EEC00A2846FFF75DF8B9F932
:104BA0003A01D7ED6E0A00EE100AB8EEC00A3046A0
:104BB000FFF752F899ED100A99ED2A1A99ED442A57
:104BC000BDEEC00A99ED5E3A10EE101ABDEEC10AB4
:104BD00010EE102ABDEEC20A10EE103ABDEEC30A66
:104BE00040F2405010EE107AC2F200000097FCF73D
:104BF000EBF814B0BDEC048B01B0BDE8F08F00BF42
:104C000000000000000042400000000000401C4680
:104C10004FF07E51016344F6454180EC030AC0F633
:104C2000000144F6894244F64D4343F6955C7430E6
:104C3000C0F60002C0F60003C0F6000C80E80E10BB
:104C4000704700000C3080EC060A704710B590EDFC
:104C5000160A044601F09AF8B1EE401A94ED170ACC
:104C6000D4ED180A84ED191A01F026F994ED131AFF
:104C7000D4ED100A84ED1A0AB0EE410A01F01CF9D5
:104C800084ED1B0A10BD00002DED048B90ED071A7A
:104C900090ED062A90ED084A21EE010A22EE023A32
:104CA00033EE000A24EE043A33EE000AB1EEC03AC5
:104CB00090ED185AD0ED022AD0ED001AD0ED0A4A34
:104CC000D0ED033AF6EE005AD0F8801084EE030AD5
:104CD00081EE031A82EE032A90ED174A90ED163A00
:104CE00024EE006A21EE057A37EE466A25EE025A76
:104CF00020EE037A37EE457A90ED015A23EE013A21
:104D000022EE044A74EE430A25EE063A90ED094A73
:104D100023EE223A33EE043A25EE074A24EE224AE5
:104D200034EE244A25EE205AD0ED0B4A21EE866A55
:104D300025EE225A36EE036A35EE245A33EE866AA1
:104D400021EE877AD0ED043A61EEA00AD0ED051A83
:104D500037EE047A70EE850A37EE237A70EEA10AF8
:104D6000D0ED0D1AD0ED0E3AD0ED0F4A62EEA52A25
:104D700067EE235A61EEC66A76EEE55A64EEA06AE3
:104D800075EEE65AD0ED0C6A60EEA37A26EE868ABE
:104D900078EE277A24EE878A77EEC87A20EEA18A09
:104DA00026EE879A39EE488A24EE869A65EEA25A54
:104DB00067EEA27A39EE088A76EEA55A71EEA77AE6
:104DC00067EE211A66EEA06A76EEA11A68EE226AF4
:104DD00073EEA66A63EE863A71EEE31A61EEA21AEA
:104DE00067EEA72A65EEA53A74EEA11A73EEA22A21
:104DF00066EEA63A73EEA22A61EEA13A73EEA22AFB
:104E0000F1EEE22A80ED062A80ED071A80ED080A0D
:104E100080ED093A80ED0A4A80ED0B5A80ED036A75
:104E200080ED047AC0ED050AC5EEA23AC7EEA24AAB
:104E3000C6EEA25A81EEA22AC0ED0C3AC0ED0D4A90
:104E4000C0ED0E5A80ED0F2ABDEC048B0847000020
:104E5000FDF768F8FFF7BAF8FEF7B4FDFEF7EEFCD1
:104E6000FEF7ACFCFEF7CAFCFEF72CFEFEF754FE84
:104E7000FEF770FEFEF7AAFEFEF7C6FEFEF788FEFE
:104E8000FBF782FF00F0F0FAFFF756FC4FF4F070EA
:104E9000FCF7B6F840F23470C2F200000021FBF7D4
:104EA0001FFC88B141F2000440F23475C4F20204E0
:104EB000C2F2000520460421FDF712F82846002121
:104EC000FBF70EFC0028F5D1FEF7F6FC00F00AF81F
:104ED000FEE7000080B5012898BF012000F024FC07
:104EE000002080BD80B500F06FFC002080BD000078
:104EF000B0B584B043698E4693B1846984B10589A5
:104F0000D0E9001C026928B2843D18BFC51CCDE958
:104F1000005360467346029400F0F0FD04B0B0BD4B
:104F20000589D0E90013028A28B2843D18BFC51C48
:104F300003AC18467346CDE9005400F0AFFD039969
:104F4000012818BF0021084604B0B0BD2DE9F0418A
:104F5000044600F029FB40F25016C2F20006306908
:104F600040F60055013030613068C2F2000548B1AA
:104F70007069002840D13068E16AC06A884298BFF1
:104F8000346039E034603069012835D1284600F0BA
:104F9000B1FA05F1140000F0ADFA05F1280000F0B7
:104FA000A9FA05F13C0000F0A5FA05F1500000F067
:104FB000A1FA05F1640000F09DFA05F1780000F017
:104FC00099FA40F2F018C2F20008404600F092FA56
:104FD00008F11407384600F08DFA06F1640000F07D
:104FE00089FA06F13C0000F085FA06F1500000F065
:104FF00081FAC6F8308077637068B16801220131A8
:10500000B160E16A8A401043706001EB810005EBFA
:105010008000211D00F0B0FA00F0EAFA706988B152
:105020003068E16AC06A884228BFBDE8F0814EF668
:105030000450CEF200004FF080510160BFF34F8F5B
:10504000BFF36F8FBDE8F08140F2501540F6005677
:105050004EF60458C2F20005C2F20006CEF2000875
:105060004FF0805703E000BF204600F0D9FAE8680F
:10507000D0B100F099FAA86CC468201D00F01AFAAB
:10508000286901382861E8680138E86000F0B0FA62
:1050900094F851000228EAD00128E5D070B9206BBD
:1050A00000F0BEFAE0E700BF30680228DFD3C8F89E
:1050B0000070BFF34F8FBFF36F8FD8E74FF05000F2
:1050C00080F31188BFF36F8FBFF34F8FFEE70000AF
:1050D0002DE9F047DDE909878246386B089C00EB33
:1050E000820004389946002920F0070656D0087837
:1050F00087F83400087800284BD0487887F83500C6
:105100004878002845D0887887F8360088780028C5
:105110003FD0C87887F83700C878D0B3087987F8C7
:1051200038000879A8B3487987F83900487980B3FE
:10513000887987F83A00887958B3C87987F83B00AE
:10514000C87930B3087A87F83C00087A08B3487AFF
:1051500087F83D00487AE0B1887A87F83E00887A7F
:10516000B8B1C87A87F83F00C87A90B1087B87F851
:105170004000087B68B1487B87F84100487B40B11C
:10518000887B87F84200887B00281CBFC87B87F893
:105190004300002087F8430003E000BF002087F8A9
:1051A00034000025381D062C28BF0624FC62C7E900
:1051B000114500F0ABF907F1180000F0A7F984F0F1
:1051C0000700B861304651464A463F617F62FD6440
:1051D00087F8505000F036F9B8F1000F386018BF6A
:1051E000C8F80070BDE8F08708480068006880F3E0
:1051F00008884FF0000080F3148862B661B6BFF3F0
:105200004F8FBFF36F8F00DF00BF000008ED00E09D
:1052100081B00020009040F22400C2F2000000683B
:105220004FF0500181F31188BFF36F8FBFF34F8FA1
:10523000013007D0FEE700BF009830B9009820B9D0
:10524000009810B900980028F6D001B0704700000F
:1052500070B5044600F01EFB40F2C81CC2F2000C00
:10526000DCF8040050B19CF80000002818BF4FF093
:1052700000404FF0000544BB83E000BF40F68C5077
:10528000C2F20000420700F5F04200F1070122F0EF
:10529000070218BF21F007000021A2F10803CCE9A2
:1052A0000601CCF8043042E90211DCF80420191A96
:1052B000C0E9002101208CF800004FF00040CCE94B
:1052C0000211002C4FF000055BD0204059D124F092
:1052D000070000F11002600708BF04F10802DCF8C3
:1052E0000800511E81424CD2604650F818EFDEF89B
:1052F000045095422BD2DEF80010B9B174464D68C7
:10530000954217D20B68ABB15D68954216D218680A
:10531000A0B14568954215D204689CB16568954274
:1053200014D22168A6460029E9D110E00CF118003A
:105330000DE000BF8E46204609E000BF9E460846AD
:1053400005E000BF8646184601E000BFA646DCF82F
:1053500004108E4514D00168DEF80040AB1A112B02
:1053600004604DD30EEB0205680719D04FF05000D2
:1053700080F31188BFF36F8FBFF34F8FFEE700BF3D
:10538000002500F07BFC68075AD04FF0500080F3F6
:105390001188BFF36F8FBFF34F8F00BFFEE700BFD1
:1053A0000CF118006B60CEF8042000BF0368AB421C
:1053B0000AD21868A8420BD20368AB4204D218681C
:1053C0001A46A842F2D304E00246184601E000BFA4
:1053D0001A4654686B681619AE4202D1234415462A
:1053E0005360EC18844207D1DCF80440A04203D09B
:1053F000D0E9000423446B60AA42286018BF1560FE
:10540000DEF80400DCE9022301F10805111A9942D3
:10541000CCF8081038BFCCF80C109CF8001000290C
:105420004FF0000118BF40F00040CEE90010DCF85A
:1054300010000130CCF8100000F020FC6807A4D167
:10544000284670BD034645F2112021F00101C0F647
:1054500000004FF0807C03E903106FF00201A3F11C
:10546000440043E90912704780B582B040F6F40069
:10547000C2F2000001210163022141634FF0240CBC
:105480000168A0F82CC0C06B4A6940F2980342F052
:1054900040024A61CA68C2F2000342F01002CA60C8
:1054A000043103F116022833CDF800C0FCF716FAD8
:1054B00002B080BDD0E9013201699A60D1F804C020
:1054C00082688445536008BF4A6000220261086810
:1054D000013808600868704748F29073C2F2000310
:1054E000036048F29050C2F2000008608020106013
:1054F000704700004FF0FF31024642F8081F0021BC
:105500004260C0E903220160704700000021016190
:105510007047000010B5D1F800E01EF1010213D071
:1055200000F1080462681368734511D853681C6859
:10553000744511D85A68146874450FD854682368A4
:10554000A4467345EED90BE00269D2F804C007E027
:105550009446224604E000BF9C4601E094461A4669
:10556000C1F804C0CCF808108A6051600861016875
:105570000131016010BD0000D0F800C0436808612F
:105580009A684B608A609A68996051600CF10101D9
:1055900001607047DFF80C00016841F470010160A0
:1055A0007047000088ED00E04FF0500080F3118854
:1055B000BFF36F8FBFF34F8F40F22400C2F20000A1
:1055C00001684A1C026009B1704700BF4EF60450E2
:1055D000CEF200000068000608BF70474FF0500090
:1055E00080F31188BFF36F8FBFF34F8FFEE700008A
:1055F00040F22400C2F20000016839B101390160B3
:1056000018BF7047002080F3118870474FF050009A
:1056100080F31188BFF36F8FBFF34F8FFEE7000059
:1056200070B5002808BF70BD40F2C815C2F2000571
:105630000446287854F8041C002818BF4FF0004096
:1056400008420DD0A4F1080632689AB14FF050001C
:1056500080F31188BFF36F8FBFF34F8FFEE700BF5A
:105660004FF0500080F31188BFF36F8FBFF34F8F5F
:10567000FEE700BF21EA000044F8040C00F00AF93C
:1056800054F8041CA8680844A86005F1180000BF7D
:105690000368B3420AD21868B04225D20368B34205
:1056A00004D218681A46B042F2D301E00246184606
:1056B0005368D418B44202D1194416465160731885
:1056C000834206D16B68984203D0D0E900031944A5
:1056D0007160B242306018BF16606869013068615D
:1056E000BDE8704000F0CABA1A465368D418B442F4
:1056F000E5D1E1E74EF21000CEF20000002101609A
:10570000816040F21401C2F20001096844F6D352EC
:10571000C1F26202A1FB02124FF0FF3101EB9211C4
:10572000416007210160704770B500283FD040F20A
:105730005015C2F200050446A86948B14FF0500068
:1057400080F31188BFF36F8FBFF34F8FFEE700BF69
:10575000A8690130A8616E6A28680430FFF7AAFEC4
:1057600050B12868A419446013D3686B29680431C8
:10577000FFF7D0FE16E000BF28680121C06A6A6802
:1057800001FA00F022EA000068602868A419446069
:10579000EBD2286B29680431FFF7BCFE286A8442EB
:1057A00038BF2C6200F06AFA002818BF70BD4EF6B0
:1057B0000450CEF200004FF080510160BFF34F8FD4
:1057C000BFF36F8F70BD0000B0B588B00020CDE989
:1057D000050006A805A904AAFFF77EFE0598B8B340
:1057E000069C002C3ED05421049A07910799542915
:1057F00042D107992063022084F8510007A80025B0
:10580000CDE9005045F24900C0F600001FA1002379
:105810000294FFF75DFC2046FFF798FB079940F2E2
:105820005010C2F20000C16179B14FF0500181F314
:105830001188BFF36F8FBFF34F8F4FF0FF310162BD
:1058400001214161456200F065F808B0B0BD00BFBC
:105850004FF0500080F31188BFF36F8FBFF34F8F6D
:10586000FEE700BF4FF0500080F31188BFF36F8F49
:10587000BFF34F8FFEE700BF4FF0500080F3118859
:10588000BFF36F8FBFF34F8FFEE700BF49444C4516
:105890000000000040F25010C2F2000081690131A6
:1058A0008161704740F25010C2F200008169002906
:1058B0001EBF012181627047002181624168B1FAF7
:1058C00081F1C9B2C1F11F0140F6005201EB810123
:1058D000C2F2000252F8213063B102EB810252F8A9
:1058E000041F4968131D994211600DD0C9680160F9
:1058F000704700BF4FF0500080F31188BFF36F8FE7
:10590000BFF34F8FFEE700BF49681160C9680160AF
:1059100070470000B0B584B04EF2004CCEF2000CDF
:105920004CF27021C4F20F11DCF800294B1C9A4292
:105930000AD14FF0500080F31188BFF36F8FBFF38F
:105940004F8F00BFFEE700BFDCF800298A4209D173
:105950004FF0500080F31188BFF36F8FBFF34F8F6C
:10596000FEE700BF9CF800100291FF218CF80010A8
:105970009CF800108DF807109DF8071001F05002F8
:1059800040F2E811C2F200010A7007224A609DF954
:105990000720B2F1FF3F6BDC032200BFD31C4B603A
:1059A0009DF8070040008DF807009DF90700B0F151
:1059B000FF3F24DC931C4B609DF8070040008DF8EE
:1059C00007009DF90700B0F1FF3F18DC531C4B6046
:1059D0009DF8070040008DF807009DF90700B0F121
:1059E000FF3F0CDC4A609DF80700043A40008DF848
:1059F00007009DF90700B0F1FF3FCFDD131D032B1A
:105A000036D14FF44070486002988CF80000DCF802
:105A1000200940F47000CCF82009DCF8200940F09F
:105A20007040CCF82009FFF765FE40F22404C2F272
:105A3000000400252560FFF7ADFD4EF63470CEF270
:105A40000000016841F040410160FFF7CDFBFFF726
:105A500029FF039520684FF0500181F31188BFF3AF
:105A60006F8FBFF34F8F013012D000BFFEE700BF32
:105A70004FF0500080F31188BFF36F8FBFF34F8F4B
:105A8000FEE700BF039830B9039820B9039810B916
:105A900003980028F6D0002004B0B0BD2DE9F043F3
:105AA00083B007469000984615468946FFF7D0FB1D
:105AB000F8B106465420FFF7CBFBB8B10446DDE948
:105AC0000A100022266384F85120CDE900103846E0
:105AD00049462A4643460294FFF7FAFA2046FFF762
